{
  "contractName": "Faucet",
  "abi": [
    {
      "inputs": [],
      "name": "numOfFunders",
      "outputs": [
        {
          "internalType": "uint256",
          "name": "",
          "type": "uint256"
        }
      ],
      "stateMutability": "view",
      "type": "function",
      "constant": true
    },
    {
      "stateMutability": "payable",
      "type": "receive",
      "payable": true
    },
    {
      "inputs": [],
      "name": "addFunds",
      "outputs": [],
      "stateMutability": "payable",
      "type": "function",
      "payable": true
    },
    {
      "inputs": [],
      "name": "getAllFunders",
      "outputs": [
        {
          "internalType": "address[]",
          "name": "",
          "type": "address[]"
        }
      ],
      "stateMutability": "view",
      "type": "function",
      "constant": true
    },
    {
      "inputs": [
        {
          "internalType": "uint8",
          "name": "index",
          "type": "uint8"
        }
      ],
      "name": "getFunderAtIndex",
      "outputs": [
        {
          "internalType": "address",
          "name": "",
          "type": "address"
        }
      ],
      "stateMutability": "view",
      "type": "function",
      "constant": true
    }
  ],
  "bytecode": "0x608060405234801561001057600080fd5b50610630806100206000396000f3fe6080604052600436106100435760003560e01c80630a93cf331461004f5780636fbbb55d1461008c578063a26759cb146100b7578063af7f2c9b146100c15761004a565b3661004a57005b600080fd5b34801561005b57600080fd5b5061007660048036038101906100719190610387565b6100ec565b60405161008391906103f5565b60405180910390f35b34801561009857600080fd5b506100a161012c565b6040516100ae91906104ce565b60405180910390f35b6100bf610225565b005b3480156100cd57600080fd5b506100d6610343565b6040516100e39190610509565b60405180910390f35b6000600260008360ff16815260200190815260200160002060009054906101000a900473ffffffffffffffffffffffffffffffffffffffff169050919050565b60606000805467ffffffffffffffff81111561014b5761014a610524565b5b6040519080825280602002602001820160405280156101795781602001602082028036833780820191505090505b50905060005b60005481101561021d576002600082815260200190815260200160002060009054906101000a900473ffffffffffffffffffffffffffffffffffffffff168282815181106101d0576101cf610553565b5b602002602001019073ffffffffffffffffffffffffffffffffffffffff16908173ffffffffffffffffffffffffffffffffffffffff16815250508080610215906105b1565b91505061017f565b508091505090565b6000339050600160008273ffffffffffffffffffffffffffffffffffffffff1673ffffffffffffffffffffffffffffffffffffffff16815260200190815260200160002060009054906101000a900460ff1661034057600080600081548092919061028f906105b1565b91905055905060018060008473ffffffffffffffffffffffffffffffffffffffff1673ffffffffffffffffffffffffffffffffffffffff16815260200190815260200160002060006101000a81548160ff021916908315150217905550816002600083815260200190815260200160002060006101000a81548173ffffffffffffffffffffffffffffffffffffffff021916908373ffffffffffffffffffffffffffffffffffffffff160217905550505b50565b60005481565b600080fd5b600060ff82169050919050565b6103648161034e565b811461036f57600080fd5b50565b6000813590506103818161035b565b92915050565b60006020828403121561039d5761039c610349565b5b60006103ab84828501610372565b91505092915050565b600073ffffffffffffffffffffffffffffffffffffffff82169050919050565b60006103df826103b4565b9050919050565b6103ef816103d4565b82525050565b600060208201905061040a60008301846103e6565b92915050565b600081519050919050565b600082825260208201905092915050565b6000819050602082019050919050565b610445816103d4565b82525050565b6000610457838361043c565b60208301905092915050565b6000602082019050919050565b600061047b82610410565b610485818561041b565b93506104908361042c565b8060005b838110156104c15781516104a8888261044b565b97506104b383610463565b925050600181019050610494565b5085935050505092915050565b600060208201905081810360008301526104e88184610470565b905092915050565b6000819050919050565b610503816104f0565b82525050565b600060208201905061051e60008301846104fa565b92915050565b7f4e487b7100000000000000000000000000000000000000000000000000000000600052604160045260246000fd5b7f4e487b7100000000000000000000000000000000000000000000000000000000600052603260045260246000fd5b7f4e487b7100000000000000000000000000000000000000000000000000000000600052601160045260246000fd5b60006105bc826104f0565b91507fffffffffffffffffffffffffffffffffffffffffffffffffffffffffffffffff8214156105ef576105ee610582565b5b60018201905091905056fea2646970667358221220aa0f583e40889f7b198a9eba8d978a31d0d944bf8532886afa1cc90bb6fe15d664736f6c634300080a0033",
  "immutableReferences": {},
  "source": "// SPDX-License-Identifier: MIT\npragma solidity 0.8.10;\n\ncontract Faucet {\n\n    uint public numOfFunders;\n    mapping(address => bool) private funders;\n    mapping(uint => address) private lutFunders;\n\n    receive() external payable {}\n\n    function addFunds() public payable {\n        address funder = msg.sender;\n\n        if (!funders[funder]) {\n\n            uint index = numOfFunders++;\n            funders[funder] =true;\n            lutFunders[index] = funder;\n        }\n    }\n    // get all founders\n    function getAllFunders() external view returns (address[] memory) {\n        address[] memory _funders = new address[](numOfFunders);\n        for (uint i =0; i < numOfFunders; i++) {\n            _funders[i] = lutFunders[i];\n        }\n        return _funders;\n    }\n\n    // return index of funders\n    function getFunderAtIndex(uint8 index) external view returns(address) {\n        return lutFunders[index];\n    }\n\n}\n\n// const instance = await Faucet.deployed()\n// instance.addFunds({value:\"2\", from: accounts[0]})\n// instance.addFunds({value:\"2\", from: accounts[1]})",
  "sourcePath": "/home/godwin/Documents/blockchain_projects/Faucet/contracts/Faucet.sol",
  "compiler": {
    "name": "solc",
    "version": "0.8.10+commit.fc410830.Emscripten.clang"
  },
  "schemaVersion": "3.4.3",
  "updatedAt": "2021-12-01T17:23:17.595Z",
  "networkType": "ethereum",
  "devdoc": {
    "kind": "dev",
    "methods": {},
    "version": 1
  },
  "userdoc": {
    "kind": "user",
    "methods": {},
    "version": 1
  }
}