{
  "contractName": "Faucet",
  "abi": [
    {
      "inputs": [],
      "name": "numOfFunders",
      "outputs": [
        {
          "internalType": "uint256",
          "name": "",
          "type": "uint256"
        }
      ],
      "stateMutability": "view",
      "type": "function",
      "constant": true
    },
    {
      "inputs": [],
      "name": "owner",
      "outputs": [
        {
          "internalType": "address",
          "name": "",
          "type": "address"
        }
      ],
      "stateMutability": "view",
      "type": "function",
      "constant": true
    },
    {
      "stateMutability": "payable",
      "type": "receive",
      "payable": true
    },
    {
      "inputs": [],
      "name": "addFunds",
      "outputs": [],
      "stateMutability": "payable",
      "type": "function",
      "payable": true
    },
    {
      "inputs": [
        {
          "internalType": "uint256",
          "name": "withdrawAmount",
          "type": "uint256"
        }
      ],
      "name": "withdraw",
      "outputs": [],
      "stateMutability": "nonpayable",
      "type": "function"
    },
    {
      "inputs": [],
      "name": "getAllFunders",
      "outputs": [
        {
          "internalType": "address[]",
          "name": "",
          "type": "address[]"
        }
      ],
      "stateMutability": "view",
      "type": "function",
      "constant": true
    },
    {
      "inputs": [
        {
          "internalType": "uint8",
          "name": "index",
          "type": "uint8"
        }
      ],
      "name": "getFunderAtIndex",
      "outputs": [
        {
          "internalType": "address",
          "name": "",
          "type": "address"
        }
      ],
      "stateMutability": "view",
      "type": "function",
      "constant": true
    }
  ],
  "bytecode": "0x608060405234801561001057600080fd5b50336000806101000a81548173ffffffffffffffffffffffffffffffffffffffff021916908373ffffffffffffffffffffffffffffffffffffffff16021790555061085b806100606000396000f3fe6080604052600436106100595760003560e01c80630a93cf33146100655780632e1a7d4d146100a25780636fbbb55d146100cb5780638da5cb5b146100f6578063a26759cb14610121578063af7f2c9b1461012b57610060565b3661006057005b600080fd5b34801561007157600080fd5b5061008c600480360381019061008791906104b6565b610156565b6040516100999190610524565b60405180910390f35b3480156100ae57600080fd5b506100c960048036038101906100c49190610575565b610196565b005b3480156100d757600080fd5b506100e0610234565b6040516100ed9190610660565b60405180910390f35b34801561010257600080fd5b5061010b61032e565b6040516101189190610524565b60405180910390f35b610129610352565b005b34801561013757600080fd5b50610140610472565b60405161014d9190610691565b60405180910390f35b6000600360008360ff16815260200190815260200160002060009054906101000a900473ffffffffffffffffffffffffffffffffffffffff169050919050565b806e13426172c74d822b878fe8000000008111156101e9576040517f08c379a00000000000000000000000000000000000000000000000000000000081526004016101e09061072f565b60405180910390fd5b3373ffffffffffffffffffffffffffffffffffffffff166108fc839081150290604051600060405180830381858888f1935050505015801561022f573d6000803e3d6000fd5b505050565b6060600060015467ffffffffffffffff8111156102545761025361074f565b5b6040519080825280602002602001820160405280156102825781602001602082028036833780820191505090505b50905060005b600154811015610326576003600082815260200190815260200160002060009054906101000a900473ffffffffffffffffffffffffffffffffffffffff168282815181106102d9576102d861077e565b5b602002602001019073ffffffffffffffffffffffffffffffffffffffff16908173ffffffffffffffffffffffffffffffffffffffff1681525050808061031e906107dc565b915050610288565b508091505090565b60008054906101000a900473ffffffffffffffffffffffffffffffffffffffff1681565b6000339050600260008273ffffffffffffffffffffffffffffffffffffffff1673ffffffffffffffffffffffffffffffffffffffff16815260200190815260200160002060009054906101000a900460ff1661046f576000600160008154809291906103bd906107dc565b9190505590506001600260008473ffffffffffffffffffffffffffffffffffffffff1673ffffffffffffffffffffffffffffffffffffffff16815260200190815260200160002060006101000a81548160ff021916908315150217905550816003600083815260200190815260200160002060006101000a81548173ffffffffffffffffffffffffffffffffffffffff021916908373ffffffffffffffffffffffffffffffffffffffff160217905550505b50565b60015481565b600080fd5b600060ff82169050919050565b6104938161047d565b811461049e57600080fd5b50565b6000813590506104b08161048a565b92915050565b6000602082840312156104cc576104cb610478565b5b60006104da848285016104a1565b91505092915050565b600073ffffffffffffffffffffffffffffffffffffffff82169050919050565b600061050e826104e3565b9050919050565b61051e81610503565b82525050565b60006020820190506105396000830184610515565b92915050565b6000819050919050565b6105528161053f565b811461055d57600080fd5b50565b60008135905061056f81610549565b92915050565b60006020828403121561058b5761058a610478565b5b600061059984828501610560565b91505092915050565b600081519050919050565b600082825260208201905092915050565b6000819050602082019050919050565b6105d781610503565b82525050565b60006105e983836105ce565b60208301905092915050565b6000602082019050919050565b600061060d826105a2565b61061781856105ad565b9350610622836105be565b8060005b8381101561065357815161063a88826105dd565b9750610645836105f5565b925050600181019050610626565b5085935050505092915050565b6000602082019050818103600083015261067a8184610602565b905092915050565b61068b8161053f565b82525050565b60006020820190506106a66000830184610682565b92915050565b600082825260208201905092915050565b7f576974686472617720616d6f756e742067726561746572207468616e20302e3160008201527f2065746865720000000000000000000000000000000000000000000000000000602082015250565b60006107196026836106ac565b9150610724826106bd565b604082019050919050565b600060208201905081810360008301526107488161070c565b9050919050565b7f4e487b7100000000000000000000000000000000000000000000000000000000600052604160045260246000fd5b7f4e487b7100000000000000000000000000000000000000000000000000000000600052603260045260246000fd5b7f4e487b7100000000000000000000000000000000000000000000000000000000600052601160045260246000fd5b60006107e78261053f565b91507fffffffffffffffffffffffffffffffffffffffffffffffffffffffffffffffff82141561081a576108196107ad565b5b60018201905091905056fea264697066735822122063163c411622142dc366cab3b2d7f95c342cd9176cf387f2b6123fb08066a9c364736f6c634300080a0033",
  "immutableReferences": {},
  "source": "// SPDX-License-Identifier: MIT\npragma solidity 0.8.10;\n\nimport \"./Owned.sol\";\n\ncontract Faucet is Owned {\n\n    uint public numOfFunders;\n    mapping(address => bool) private funders;\n    mapping(uint => address) private lutFunders;\n\n    modifier limitWithdrawal(uint withdrawAmount) {\n        require(\n            withdrawAmount <= 100000000000000000 ether, \n            \"Withdraw amount greater than 0.1 ether\"\n            );\n            _;\n    }\n\n    receive() external payable {}\n\n    function addFunds() public payable {\n        address funder = msg.sender;\n\n        if (!funders[funder]) {\n\n            uint index = numOfFunders++;\n            funders[funder] =true;\n            lutFunders[index] = funder;\n        }\n    }\n\n    // withdraw function\n    function withdraw(uint withdrawAmount) external limitWithdrawal(withdrawAmount) {\n        payable (msg.sender).transfer(withdrawAmount);\n    }\n\n    // get all founders\n    function getAllFunders() external view returns (address[] memory) {\n        address[] memory _funders = new address[](numOfFunders);\n        for (uint i =0; i < numOfFunders; i++) {\n            _funders[i] = lutFunders[i];\n        }\n        return _funders;\n    }\n\n    // return index of funders\n    function getFunderAtIndex(uint8 index) external view returns(address) {\n        return lutFunders[index];\n    }\n\n}\n\n// const instance = await Faucet.deployed()\n// instance.addFunds({value:\"2\", from: accounts[0]})\n// instance.addFunds({value:\"2\", from: accounts[1]})",
  "sourcePath": "/home/godwin/Documents/blockchain_projects/Faucet/contracts/Faucet.sol",
  "compiler": {
    "name": "solc",
    "version": "0.8.10+commit.fc410830.Emscripten.clang"
  },
  "schemaVersion": "3.4.3",
  "updatedAt": "2021-12-02T08:31:44.634Z",
  "networkType": "ethereum",
  "devdoc": {
    "kind": "dev",
    "methods": {},
    "version": 1
  },
  "userdoc": {
    "kind": "user",
    "methods": {},
    "version": 1
  }
}